:020000040800F2
:1000000000080020D9000008FF00000801010008D6
:1000100000000000000000000000000000000000E0
:1000200000000000000000000000000003010008C4
:10003000000000000000000005010008FD060008A7
:100040000901000809010008090100080901000868
:100050000901000809010008090100080901000858
:10006000000000000901000809010008090100085A
:100070000901000809010008090100080901000838
:10008000090100080000000000000000090100084C
:10009000000000000901000809010008090100082A
:1000A000000000000901000809010008D507000848
:1000B0004D080008000000000901000809010008BF
:1000C0000448854600F04AF800480047950C0008AF
:1000D000C046C046000800200C4880F308880C4841
:1000E0000168090E0B4A914205D10B480B4901608A
:1000F0000B480C4901600C4880470C480047FEE75C
:10010000FEE7FEE7FEE7FEE7FEE70000000800204E
:10011000040000001F000000181002400100000051
:10012000000001400000000069070008C10000084D
:1001300030B50B46014600202022012409E00D467F
:10014000D5409D4205D31D469540491B2546954007
:1001500040191546521E002DF1DC30BD064C01251C
:10016000064E05E0E36807CC2B430C3C984710345F
:10017000B442F7D3FFF7A8FFE00D0008000E000817
:10018000FFB583B00C46029400200190002726E0C2
:1001900000261CE0721C039951430846791CFFF7A6
:1001A000C7FF0546A54201D9281B00E0601B054694
:1001B0000298A84204D9029505980670069807701F
:1001C0000298002802D10120019002E0761C402E06
:1001D000E0D300BF0198002800D002E07F1C042F6C
:1001E000D6D300BF029807B0F0BD000008B50121CA
:1001F0000320400400F016F9684600F095F801214C
:10020000C90368460180012181701021C1706946CF
:100210000920C00600F01CF80121C9030920C0060E
:1002200000F080F8684600F07FF8382168460180C9
:10023000012181701021C1706946044800F008F85E
:100240003821024800F06EF808BD000000040048A4
:10025000F8B50246CD782F073F0FCD7810263540F0
:10026000002D01D08D782F431446002011E0850623
:100270002B0E0D88012686403540002D07D02568BD
:100280000F269E40B5433E469E4035432560451CA3
:10029000E8B20828EBDB141D0D882D120095002014
:1002A00011E085062B0E01258540009E3540002D6E
:1002B00007D025680F269E40B5433E469E403543F5
:1002C0002560451CE8B20828EBDBCD78282D04D149
:1002D00055690E883543556106E0CD78482D03D128
:1002E00015690E8835431561F8BD70B54D07EB0EE5
:1002F000082902DA0546203501E0054624352C465A
:100300000F269E402568B54316469E40354325601E
:1003100070BD0246D0680840002801D00120704717
:100320000020FCE7416170470021C94301800221A0
:1003300081700421C1707047002A01D0016100E082
:10034000416170478178002925D0174903221202A4
:100350008918027892109200895802789207D30E79
:10036000FF229A40914342789207120E03789B072E
:10037000DB0E9A4011430C4A03231B02D218037868
:100380009B109B00D1500178CA06D20E01219140EA
:10039000054A116007E00178CA06D20E012191409A
:1003A000014A80321160704700E100E010B500287A
:1003B00019DA1A4A03071B0F083B9B089B00D25807
:1003C0008307DC0EFF23A3409A438B071B0E840791
:1003D000E40EA3401A43114B0407240F083CA40861
:1003E000A4001A5118E00E4A03231B02D2188308F6
:1003F0009B00D2588307DC0EFF23A3409A438B0750
:100400001B0E8407E40EA3401A43054B0324240269
:100410001B198408A4001A5110BD00001CED00E057
:1004200000E100E0002905D0054A52690243044B6F
:100430005A6104E0024A52698243014B5A61704793
:1004400000100240002905D0054AD2690243044B3E
:10045000DA6104E0024AD2698243014BDA617047F3
:1004600000100240002905D0054A92690243044B5E
:100470009A6104E0024A92698243014B9A61704793
:100480000010024010B500F031F804494968F0222C
:1004900011400909024A515CC84010BD00100240D9
:1004A0001C00002010B5FFF7EDFF05494968072241
:1004B00012021140090A034A515CC84010BD0000F5
:1004C000001002401C00002010B5FFF7DBFF0549BB
:1004D00049680722D2021140C90A034A515CC84048
:1004E00010BD0000001002401C00002070B519482B
:1004F00040680C210840042802D0082827D101E0D8
:10050000154870BD134840680121090408400028BF
:1005100009D01048406849000840002801D00F4821
:1005200002E00D4800E00E4806460A480068800ECA
:10053000441C08480068072109050840000D451CB7
:100540003146614308462946FFF7F2FDD9E70248E4
:10055000D7E700000010024000127A0000093D00B9
:10056000001BB70010B500F001F810BD7FB50020EA
:100570000390029000255448006801210843524925
:10058000086000BF504800680221084002900398AC
:10059000401C03900298002804D105210902039809
:1005A0008842EFD14848006802210840002809D05D
:1005B000012002907D24240100BF2046641E0028F3
:1005C000FBD101E000200290029801287BD13F4836
:1005D0003F4908603F480068102108433D490860D2
:1005E00008460068C008C000086039490968481E0C
:1005F0003949FFF79DFDC5B23648006828433549A3
:1006000008603148406830494860084640684860A2
:100610002F4800683149884207D92B48406801219A
:10062000890208432849486006E0274840680121BC
:10063000890208432449486023484068032109048B
:1006400088432149486008460068254908401E49FA
:1006500008606B4601AA1E4801682248FFF790FD1A
:10066000194800681E49084017490860694608791A
:1006700080060978090508431349096808431249A7
:100680000860084600680121090608430E49086011
:1006900000BF0D4800680121490608400028F8D035
:1006A000094840688008800007494860084640685B
:1006B000022108430449486000BF034840680C21F8
:1006C00008400828F9D17FBD00100240006CDC0210
:1006D000000000200020024000366E01005125027B
:1006E000FFFF8F00001BB7000349086000BF0249ED
:1006F00009680029FBD170471400002004480068F5
:10070000002804D002480068401E01490860704774
:100710001400002070B50546FFF7E8FE064629469E
:10072000FFF706FD0446601E0D49884201D90120ED
:100730000CE0601E0B4948610321081FFFF736FEDD
:10074000002008498861072008610020002801D0A6
:1007500000BFFEE70021481EFFF728FE70BD000025
:10076000FFFFFF0000E000E010B51648006801211F
:100770000843144908600846406813490840114975
:10078000486008460068114908400E49086008465C
:1007900000680121890488430A49086008464068C6
:1007A000C32109048843074948600846006808498E
:1007B0000840044908609F2000048860FFF7D2FECB
:1007C00010BD0000001002400CC0FFF8FFFFF6FE55
:1007D000FFFF8F0010B50221194800F0A4F800288F
:1007E00016D01848008896280CDA154800F0EAF868
:1007F000C1B2144802880088401C124B188012486D
:10080000815405E00E4800F0DDF800200D49088015
:10081000012149020A4800F086F800280ED0084855
:1008200000F0D0F807480088002807D00548018864
:10083000054800F0B5FA00200249088010BD00000C
:10084000003801401A000020C001002010B502212C
:10085000294800F068F8002824D0274800F0B2F8B2
:10086000C4B20221244800F04DF82448007A002840
:1008700017D122482038C18CC08C401C82B21F483E
:100880002038C284403844544030C18C808C81422E
:1008900007D101211948017200220221164800F0F7
:1008A0004BF800BF0121144800F03DF8002822D089
:1008B0000121114800F026F81148007A00281AD1C9
:1008C0000F482038C28CC08C401C83B20C482038A2
:1008D000C3844038815C084800F078F80848203824
:1008E000C18C808C814206D1012105480172002211
:1008F000014800F021F810BD00440040F40300203E
:100900008A030020416170478269520852000A43FD
:1009100082617047024690680840002801D001209B
:1009200070470020FCE70246D0680840002801D04C
:10093000012070470020FCE7002A03D003690B4325
:10094000036102E003698B430361704770B504469D
:100950000D460026E0693021884329790843E0618B
:10096000E06904218843A9790843E061E0698008CF
:100970008000297A0843E061A069182188436989C9
:100980000843A061A06904218843297B0843A06132
:100990000B48844203D1FFF797FD064602E0FFF7BC
:1009A00081FD064630462968FFF7C2FB0009206238
:1009B00030462968FFF7BCFB0007000F606270BD7E
:1009C0000038014001464868C0B27047CAB20260B0
:1009D00070474B21C90101603021017100218171F3
:1009E000017218214181002101737047F0B587B071
:1009F00004460D4616461F465748844258D10121E9
:100A00008803FFF72FFD02A8FFF7E3FF0295684672
:100A10008681C7810C99018200218182182141823F
:100A200002A92046FFF792FF012202212046FFF78C
:100A300083FF012251022046FFF77EFF012120465D
:100A4000FFF762FF01214804FFF7ECFC0121084693
:100A5000FFF708FD01220921C806FFF746FC012225
:100A60000A210920C006FFF740FC06A8FFF75CFC3E
:100A7000611568460183012181761821C17606A996
:100A80000920C006FFF7E4FB211568460183042115
:100A9000C17606A90920C006FFF7DAFB1B216846CC
:100AA000017101214171817101A8FFF74BFC51E0F7
:100AB0002A4884424ED101214804FFF7C3FC02A812
:100AC000FFF787FF029568468681C7810C990182EE
:100AD000002181821821418202A92046FFF736FFBA
:100AE00001212046FFF710FF01214804FFF79AFC7F
:100AF00001210846FFF7B6FC012202210920C006A9
:100B0000FFF7F3FB012203210920C006FFF7EDFBED
:100B100006A8FFF709FC04216846018301218176BC
:100B20001821C17606A90920C006FFF791FB08210C
:100B3000684601830421C17606A90920C006FFF793
:100B400087FB1C216846017101214171817101A857
:100B5000FFF7F8FB07B0F0BD00380140004400404B
:100B60000FB410B503A9044B044A029800F017F81B
:100B700010BC08BC04B01847710C00082C00002001
:100B800002E008C8121F08C1002AFAD17047704756
:100B9000002001E001C1121F002AFBD17047FFB500
:100BA00081B00546002706E025280AD0049A03995B
:100BB00090476D1C7F1C28780028F5D1384605B079
:100BC000F0BD002269786D1C10462E2913D169787A
:100BD00004226D1C2A2909D102996D1C01C90291B8
:100BE00009E00A235843303808186D1C29780B4651
:100BF000303B092BF5D92B78002BDFD0632B07D0A6
:100C0000732B10D0049A1846039990477F1C2DE04F
:100C100002996C460B782370091D029100216170C6
:100C20006E46012104E0029940C902910021C943A6
:100C300052070AD5002400E0641C84420DDA8C427D
:100C4000FADB325D002AF7D107E0002400E0641CE3
:100C50008C42FCDB305D0028F9D13F1904E030788C
:100C6000049A761C03999047641EF8D26D1CA2E783
:100C700070B504460D46E1B20548FFF7A7FE00BF78
:100C800001210348FFF746FE0028F9D0204670BD39
:100C90000038014008B500247D20C000FFF73AFD70
:100CA000002003463022E121490200902E48FFF740
:100CB0009DFEFFF79BFA00BF4DE00121C90309200B
:100CC000C006FFF726FB002807D000220121C90338
:100CD0000920C006FFF730FB05E00122D1030920FF
:100CE000C006FFF729FB08212048FFF712FB002868
:100CF00005D0002208211D48FFF71EFB04E0012259
:100D000008211A48FFF718FB10211848FFF701FBCC
:100D1000002805D0002210211448FFF70DFB04E045
:100D2000012210211148FFF707FB20210F48FFF790
:100D3000F0FA002805D0002220210C48FFF7FCFA29
:100D400004E0012220210948FFF7F6FA6420FFF7AA
:100D5000CBFC601CC4B20A2CAFDB05A207A10AA021
:100D6000FFF7FEFE00BFFEE7003801400004004828
:100D700031343A30303A32310000000046656220AA
:100D800020352032303231000D0A4D4D333246309D
:100D90003332523854362025732025730D0A000053
:100DA00070B504460D460BE000BF01210B48FFF76C
:100DB000B1FD0028F9D02178641C0848FFF706FE31
:100DC0002846691E8DB20028EED100BF01210348DC
:100DD000FFF7A0FD0028F9D070BD000000380140E9
:100DE000000E00080000002030000000800B00080A
:100DF000300E000830000020D0070000900B0008E3
:100E0000006CDC020000000000000000010203048E
:100E100006070809000000000000000000000000B4
:100E20000102030401020304060708090000000090
:04000005080000C12E
:00000001FF
